:0100000001fe
:0100010015e9
:0100020001fc
:0100030015e7
:0100040011ea
:0100050004f6
:0100060011e8
:0100070000f8
:0100080011e6
:0100090010e6
:01000a0011e4
:01000b0014e0
:01000c0011e2
:01000d0010e2
:01000e0011e0
:01000f0010e0
:0100100011de
:0100110010de
:0100120011dc
:0100130010dc
:0100140015d6
:0100150010da
:0100160015d4
:0100170010d8
:0100180015d2
:0100190011d5
:01001a0014d1
:01001b0011d3
:01001c0015ce
:01001d0010d2
:01001e0015cc
:01001f0011cf
:0100200014cb
:0100210011cd
:0100220010cd
:0100230015c7
:0100240010cb
:0100250015c5
:0100260015c4
:0100270015c3
:0100280015c2
:0100290015c1
:01002a0015c0
:01002b0015bf
:01002c0015be
:01002d0025ad
:01002e0015bc
:01002f0025ab
:0100300015ba
:0100310025a9
:0100320025a8
:0100330015b7
:0100340025a6
:0100350025a5
:0100360025a4
:0100370015b3
:0100380025a2
:0100390015b1
:01003a0025a0
:01003b0014b0
:01003c0015ae
:01003d00259d
:01003e0014ad
:01003f0011af
:0100400014ab
:0100410011ad
:0100420014a9
:0100430011ab
:0100440014a7
:0100450011a9
:0100460014a5
:0100470011a7
:0100480014a3
:0100490011a5
:01004a0014a1
:01004b0011a3
:01004c00149f
:01004d0011a1
:01004e00149d
:01004f00159b
:01005000109f
:010051001599
:010052001499
:01005300119b
:010054001497
:010055001595
:010056001495
:010057001593
:010058001493
:010059001591
:01005a001491
:01005b00158f
:01005c00148f
:01005d00158d
:01005e00148d
:01005f00158b
:01006000148b
:010061001589
:010062001489
:010063001587
:01006400009b
:01006500009a
:010066000099
:010067000098
:010068000097
:010069000096
:01006a000095
:01006b000094
:01006c000093
:01006d000092
:01006e000091
:01006f000090
:01007000008f
:01007100008e
:01007200008d
:01007300008c
:01007400008b
:01007500008a
:010076000089
:010077000088
:010078000087
:010079000086
:01007a000085
:01007b000084
:01007c000083
:01007d000082
:01007e000081
:01007f000080
:01008000156a
:01008100007e
:010082001568
:01008300007c
:010084001566
:010085001169
:010086000475
:010087001167
:010088000473
:010089001165
:01008a000471
:01008b001163
:01008c00046f
:01008d001161
:01008e00046d
:01008f001060
:01009000046b
:01009100105e
:010092001459
:01009300115b
:01009400105b
:010095001159
:010096001059
:010097001553
:010098001057
:010099001551
:01009a001154
:01009b001450
:01009c001152
:01009d00154d
:01009e001051
:01009f00154b
:0100a000104f
:0100a1001549
:0100a200104d
:0100a300114b
:0100a4001447
:0100a5001149
:0100a6001049
:0100a7001543
:0100a8002037
:0100a9001541
:0100aa002035
:0100ab00153f
:0100ac00252e
:0100ad00153d
:0100ae00252c
:0100af00153b
:0100b000252a
:0100b1001539
:0100b2002528
:0100b3002527
:0100b4001536
:0100b5001535
:0100b6002524
:0100b7002523
:0100b8001433
:0100b9002125
:0100ba001431
:0100bb002123
:0100bc00142f
:0100bd001131
:0100be00251c
:0100bf00142c
:0100c000211e
:0100c100142a
:0100c200112c
:0100c3001428
:0100c400112a
:0100c5001426
:0100c6001128
:0100c7001424
:0100c8001126
:0100c9001422
:0100ca001124
:0100cb001420
:0100cc001122
:0100cd00141e
:0100ce001120
:0100cf00141c
:0100d000151a
:0100d100101e
:0100d2001518
:0100d3001418
:0100d400111a
:0100d5001416
:0100d6001514
:0100d7001018
:0100d8001512
:0100d9001412
:0100da001510
:0100db001410
:0100dc00150e
:0100dd00140e
:0100de00150c
:0100df00140c
:0100e000150a
:0100e100140a
:0100e2001508
:0100e3001408
:0100e400001b
:0100e500001a
:0100e6000019
:0100e7000018
:0100e8000017
:0100e9000016
:0100ea000015
:0100eb000014
:0100ec000013
:0100ed000012
:0100ee000011
:0100ef000010
:0100f000000f
:0100f100000e
:0100f200000d
:0100f300000c
:0100f400000b
:0100f500000a
:0100f6000009
:0100f7000008
:0100f8000007
:0100f9000006
:0100fa000005
:0100fb000004
:0100fc000003
:0100fd000002
:0100fe000001
:0100ff000000
:0101000000fe
:0101010015e8
:0101020001fb
:0101030015e6
:0101040000fa
:0101050005f4
:0101060010e8
:0101070001f6
:0101080010e6
:0101090000f5
:01010a0011e3
:01010b0000f3
:01010c0011e1
:01010d0010e1
:01010e0010e0
:01010f0011de
:0101100011dd
:0101110010dd
:0101120001eb
:0101130010db
:0101140015d5
:0101150010d9
:0101160015d3
:0101170010d7
:0101180015d1
:0101190010d5
:01011a0014d0
:01011b0011d2
:01011c0015cd
:01011d0010d1
:01011e0015cb
:01011f0010cf
:0101200011cd
:0101210010cd
:0101220011cb
:0101230014c7
:0101240011c9
:0101250014c5
:0101260015c3
:0101270011c6
:0101280015c1
:0101290011c4
:01012a0015bf
:01012b0015be
:01012c0010c2
:01012d0015bc
:01012e0025ab
:01012f0015ba
:0101300025a9
:0101310015b8
:0101320025a7
:0101330015b6
:0101340024a6
:0101350025a4
:0101360025a3
:0101370015b2
:0101380025a1
:0101390014b1
:01013a00259f
:01013b0014af
:01013c0021a1
:01013d0014ad
:01013e0014ac
:01013f0011ae
:0101400014aa
:0101410011ac
:0101420014a8
:0101430011aa
:0101440014a6
:0101450011a8
:0101460015a3
:0101470011a6
:0101480014a2
:0101490011a4
:01014a00159f
:01014b0011a2
:01014c00149e
:01014d0011a0
:01014e00149c
:01014f00119e
:01015000109e
:010151001598
:01015200109c
:010153001596
:010154001496
:010155001594
:010156001494
:010157001592
:010158001492
:010159001194
:01015a001490
:01015b00158e
:01015c00148e
:01015d00158c
:01015e00148c
:01015f00158a
:01016000148a
:010161001588
:010162001488
:010163001586
:01016400009a
:010165000099
:010166000098
:010167000097
:010168000096
:010169000095
:01016a000094
:01016b000093
:01016c000092
:01016d000091
:01016e000090
:01016f00008f
:01017000008e
:01017100008d
:01017200008c
:01017300008b
:01017400008a
:010175000089
:010176000088
:010177000087
:010178000086
:010179000085
:01017a000084
:01017b000083
:01017c000082
:01017d000081
:01017e000080
:01017f00007f
:010180001569
:01018100017c
:010182001567
:01018300007b
:010184001565
:010185001069
:010186000573
:010187001067
:010188000472
:010189001164
:01018a001460
:01018b001162
:01018c00145e
:01018d001061
:01018e00056b
:01018f00105f
:01019000046a
:01019100115c
:010192001458
:01019300105b
:01019400105a
:010195001554
:010196001058
:010197001552
:010198001056
:010199001154
:01019a001153
:01019b00154e
:01019c001052
:01019d00144d
:01019e00114f
:01019f00104f
:0101a0001549
:0101a100104d
:0101a2001448
:0101a300114a
:0101a400104a
:0101a5001544
:0101a6001048
:0101a7001542
:0101a8001442
:0101a9001441
:0101aa00252f
:0101ab001043
:0101ac00153d
:0101ad00252c
:0101ae00153b
:0101af00242b
:0101b0001539
:0101b1002528
:0101b2002527
:0101b3001536
:0101b4002525
:0101b5001534
:0101b6001533
:0101b7002522
:0101b8001432
:0101b9002124
:0101ba00152f
:0101bb001132
:0101bc00241e
:0101bd00152c
:0101be00211f
:0101bf00142b
:0101c000211d
:0101c1001429
:0101c200112b
:0101c3001427
:0101c4001129
:0101c5001524
:0101c6001028
:0101c7001423
:0101c8001125
:0101c9001520
:0101ca001024
:0101cb00141f
:0101cc001121
:0101cd00141d
:0101ce00111f
:0101cf00141b
:0101d0001519
:0101d100101d
:0101d2001517
:0101d3001417
:0101d4001515
:0101d5001019
:0101d6001513
:0101d7001413
:0101d8001412
:0101d9001411
:0101da00150f
:0101db00140f
:0101dc00150d
:0101dd00140d
:0101de00150b
:0101df00140b
:0101e0001509
:0101e1001409
:0101e2001507
:0101e3001407
:0101e400001a
:0101e5000019
:0101e6000018
:0101e7000017
:0101e8000016
:0101e9000015
:0101ea000014
:0101eb000013
:0101ec000012
:0101ed000011
:0101ee000010
:0101ef00000f
:0101f000000e
:0101f100000d
:0101f200000c
:0101f300000b
:0101f400000a
:0101f5000009
:0101f6000008
:0101f7000007
:0101f8000006
:0101f9000005
:0101fa000004
:0101fb000003
:0101fc000002
:0101fd000001
:0101fe000000
:0101ff0000ff
:0102000001fc
:0102010014e8
:0102020001fa
:0102030015e5
:0102040001f8
:0102050011e7
:0102060010e7
:0102070001f5
:0102080011e4
:0102090000f4
:01020a0010e3
:01020b0000f2
:01020c0011e0
:01020d0000f0
:01020e0010df
:01020f0011dd
:0102100010dd
:0102110010dc
:0102120000eb
:0102130011d9
:0102140015d4
:0102150010d8
:0102160011d6
:0102170010d6
:0102180015d0
:0102190014d0
:01021a0010d3
:01021b0014ce
:01021c0011d0
:01021d0015cb
:01021e0010cf
:01021f0015c9
:0102200010cd
:0102210015c7
:0102220010cb
:0102230014c6
:0102240011c8
:0102250014c4
:0102260011c6
:0102270014c2
:0102280021b4
:0102290015bf
:01022a0010c3
:01022b0015bd
:01022c0025ac
:01022d0014bc
:01022e0025aa
:01022f0015b9
:0102300025a8
:0102310015b7
:0102320024a7
:0102330025a5
:0102340015b4
:0102350025a3
:0102360024a3
:0102370015b1
:0102380025a0
:0102390015af
:01023a00249f
:01023b0014ae
:01023c0015ac
:01023d0010b0
:01023e0015aa
:01023f0014aa
:0102400015a8
:0102410010ac
:010242002596
:0102430010aa
:0102440015a4
:0102450010a8
:0102460015a2
:0102470011a5
:0102480014a1
:0102490010a4
:01024a00159e
:01024b0011a1
:01024c00149d
:01024d00119f
:01024e00149b
:01024f00119d
:010250001499
:010251001597
:01025200109b
:010253001496
:010254001198
:010255001494
:010256001493
:010257001591
:010258001491
:01025900158f
:01025a00148f
:01025b00158d
:01025c00148d
:01025d00158b
:01025e00148b
:01025f001589
:010260001489
:010261001587
:010262001487
:010263001585
:010264000099
:010265000098
:010266000097
:010267000096
:010268000095
:010269000094
:01026a000093
:01026b000092
:01026c000091
:01026d000090
:01026e00008f
:01026f00008e
:01027000008d
:01027100008c
:01027200008b
:01027300008a
:010274000089
:010275000088
:010276000087
:010277000086
:010278000085
:010279000084
:01027a000083
:01027b000082
:01027c000081
:01027d000080
:01027e00007f
:01027f00007e
:01028000017c
:010281001468
:01028200017a
:01028300106a
:010284000475
:010285000177
:010286001463
:010287001066
:010288000471
:010289001163
:01028a00155e
:01028b001062
:01028c00046d
:01028d00115f
:01028e00145b
:01028f00006e
:01029000115c
:010291001458
:01029200115a
:01029300105a
:010294001059
:010295001553
:010296001057
:010297001551
:010298001055
:010299001153
:01029a00154e
:01029b001052
:01029c00144d
:01029d00114f
:01029e00144b
:01029f00114d
:0102a0001449
:0102a100104c
:0102a200114a
:0102a3001446
:0102a4001148
:0102a5001444
:0102a6001146
:0102a7001541
:0102a8001441
:0102a9001143
:0102aa00153e
:0102ab001042
:0102ac00153c
:0102ad00153b
:0102ae00153a
:0102af002529
:0102b0001439
:0102b1002527
:0102b2001536
:0102b3002525
:0102b4001435
:0102b5002523
:0102b6001532
:0102b7002521
:0102b8001431
:0102b9002123
:0102ba00152e
:0102bb002121
:0102bc00241d
:0102bd00152b
:0102be00241b
:0102bf00112d
:0102c0002419
:0102c1001527
:0102c2001427
:0102c3001525
:0102c4002019
:0102c5001523
:0102c6001027
:0102c7002511
:0102c8001124
:0102c900151f
:0102ca001023
:0102cb00151d
:0102cc001120
:0102cd00141c
:0102ce00111e
:0102cf00141a
:0102d000111c
:0102d1001418
:0102d2001516
:0102d3001416
:0102d4001415
:0102d5001513
:0102d6001413
:0102d7001511
:0102d8001411
:0102d900150f
:0102da00140f
:0102db00150d
:0102dc00140d
:0102dd00150b
:0102de00140b
:0102df001509
:0102e0001409
:0102e1001507
:0102e2001407
:0102e3001406
:0102e4000019
:0102e5000018
:0102e6000017
:0102e7000016
:0102e8000015
:0102e9000014
:0102ea000013
:0102eb000012
:0102ec000011
:0102ed000010
:0102ee00000f
:0102ef00000e
:0102f000000d
:0102f100000c
:0102f200000b
:0102f300000a
:0102f4000009
:0102f5000008
:0102f6000007
:0102f7000006
:0102f8000005
:0102f9000004
:0102fa000003
:0102fb000002
:0102fc000001
:0102fd000000
:0102fe0000ff
:0102ff0000fe
:0103000014e8
:0103010001fa
:0103020014e6
:0103030005f4
:0103040011e7
:0103050014e3
:0103060001f5
:0103070000f5
:0103080011e3
:0103090010e3
:01030a0000f2
:01030b0010e1
:01030c0011df
:01030d0000ef
:01030e0010de
:01030f0015d8
:0103100010dc
:0103110000eb
:0103120014d6
:0103130010d9
:0103140015d3
:0103150010d7
:0103160014d2
:0103170011d4
:0103180014d0
:0103190015ce
:01031a0010d2
:01031b0015cc
:01031c0010d0
:01031d0015ca
:01031e0014ca
:01031f0011cc
:0103200014c8
:0103210011ca
:0103220014c6
:0103230011c8
:0103240014c4
:0103250011c6
:0103260015c1
:0103270010c5
:0103280025af
:0103290014bf
:01032a0025ad
:01032b0015bc
:01032c0020b0
:01032d0015ba
:01032e0024aa
:01032f0015b8
:0103300025a7
:0103310015b6
:0103320025a5
:0103330015b4
:0103340025a3
:0103350015b2
:0103360025a1
:0103370015b0
:01033800259f
:0103390015ae
:01033a00249e
:01033b0014ad
:01033c0015ab
:01033d00249b
:01033e0015a9
:01033f002499
:0103400011ab
:0103410014a7
:0103420011a9
:0103430014a5
:0103440015a3
:010345002592
:0103460015a1
:0103470015a0
:0103480014a0
:010349002192
:01034a00149e
:01034b00159c
:01034c00248c
:01034d00159a
:01034e00149a
:01034f001598
:010350001498
:01035100109b
:010352001595
:010353001099
:010354001593
:010355001493
:010356001195
:010357001491
:01035800158f
:01035900148f
:01035a00148e
:01035b00158c
:01035c00148c
:01035d00158a
:01035e00148a
:01035f001588
:010360001488
:010361001586
:010362001486
:010363001584
:010364000098
:010365000097
:010366000096
:010367000095
:010368000094
:010369000093
:01036a000092
:01036b000091
:01036c000090
:01036d00008f
:01036e00008e
:01036f00008d
:01037000008c
:01037100008b
:01037200008a
:010373000089
:010374000088
:010375000087
:010376000086
:010377000085
:010378000084
:010379000083
:01037a000082
:01037b000081
:01037c000080
:01037d00007f
:01037e00007e
:01037f00007d
:01038000017b
:010381000576
:010382001169
:010383000178
:010384001464
:010385000176
:010386001066
:010387001560
:010388001064
:01038900046f
:01038a001161
:01038b00155c
:01038c001060
:01038d00145b
:01038e00115d
:01038f00006d
:01039000105c
:01039100115a
:01039200105a
:010393001158
:010394001058
:010395001057
:010396001551
:010397001154
:010398001450
:010399001152
:01039a00144e
:01039b00154c
:01039c00154b
:01039d00154a
:01039e00104e
:01039f001548
:0103a000104c
:0103a1001546
:0103a200104a
:0103a3001544
:0103a4001048
:0103a5001542
:0103a6002432
:0103a7001540
:0103a800153f
:0103a9001142
:0103aa00153d
:0103ab00143d
:0103ac00153b
:0103ad00252a
:0103ae001539
:0103af002528
:0103b0001537
:0103b1002526
:0103b2001436
:0103b3002524
:0103b4002523
:0103b5001433
:0103b6002521
:0103b7002421
:0103b800152f
:0103b900241f
:0103ba00152d
:0103bb00152c
:0103bc00241c
:0103bd00152a
:0103be00142a
:0103bf001528
:0103c0002418
:0103c1001526
:0103c2002416
:0103c3001524
:0103c4001127
:0103c5001423
:0103c6001125
:0103c7002411
:0103c8001123
:0103c900141f
:0103ca00151d
:0103cb00151c
:0103cc00111f
:0103cd00141b
:0103ce00111d
:0103cf001518
:0103d000101c
:0103d1001516
:0103d2001416
:0103d3001514
:0103d4001414
:0103d5001413
:0103d6001412
:0103d7001510
:0103d8001410
:0103d900140f
:0103da00150d
:0103db00140d
:0103dc00150b
:0103dd00140b
:0103de001509
:0103df001409
:0103e0001507
:0103e1001407
:0103e2001505
:0103e3001405
:0103e4000018
:0103e5000017
:0103e6000016
:0103e7000015
:0103e8000014
:0103e9000013
:0103ea000012
:0103eb000011
:0103ec000010
:0103ed00000f
:0103ee00000e
:0103ef00000d
:0103f000000c
:0103f100000b
:0103f200000a
:0103f3000009
:0103f4000008
:0103f5000007
:0103f6000006
:0103f7000005
:0103f8000004
:0103f9000003
:0103fa000002
:0103fb000001
:0103fc000000
:0103fd0000ff
:0103fe0000fe
:0103ff0000fd
:0104000011ea
:0104010010ea
:0104020004f5
:0104030011e7
:0104040001f6
:0104050014e2
:0104060001f4
:0104070010e4
:0104080001f2
:0104090010e2
:01040a0011e0
:01040b0000f0
:01040c0011de
:01040d0000ee
:01040e0011dc
:01040f0014d8
:0104100011da
:0104110014d6
:0104120011d8
:0104130014d4
:0104140015d2
:0104150015d1
:0104160010d5
:0104170014d0
:0104180015ce
:0104190014ce
:01041a0011d0
:01041b0014cc
:01041c0010cf
:01041d0015c9
:01041e0015c8
:01041f0014c8
:0104200015c6
:0104210014c6
:0104220015c4
:0104230010c8
:0104240015c2
:0104250014c2
:0104260011c4
:0104270014c0
:0104280025ae
:0104290014be
:01042a0025ac
:01042b0014bc
:01042c0015ba
:01042d0014ba
:01042e0015b8
:01042f0015b7
:0104300024a7
:0104310015b5
:0104320025a4
:0104330015b3
:0104340014b3
:0104350025a1
:0104360015b0
:01043700259f
:0104380015ae
:01043900249e
:01043a0015ac
:01043b00249c
:01043c0015aa
:01043d002599
:01043e002499
:01043f0015a7
:0104400015a6
:0104410014a6
:0104420015a4
:0104430010a8
:010444002592
:0104450015a1
:0104460014a1
:01044700159f
:01044800159e
:01044900258d
:01044a00149d
:01044b00218f
:01044c00149b
:01044d001599
:01044e001499
:01044f002488
:010450001596
:010451001496
:010452001594
:010453001494
:010454001592
:010455001591
:010456001491
:010457001490
:01045800158e
:01045900158d
:01045a00148d
:01045b00158b
:01045c00148b
:01045d001589
:01045e001588
:01045f001587
:010460001487
:010461001585
:010462001584
:010463001484
:010464000097
:010465000096
:010466000095
:010467000094
:010468000093
:010469000092
:01046a000091
:01046b000090
:01046c00008f
:01046d00008e
:01046e00008d
:01046f00008c
:01047000008b
:01047100008a
:010472000089
:010473000088
:010474000087
:010475000086
:010476000085
:010477000084
:010478000083
:010479000082
:01047a000081
:01047b000080
:01047c00007f
:01047d00007e
:01047e00007d
:01047f00007c
:010480000576
:010481000179
:010482001564
:010483000474
:010484001166
:010485001165
:010486000471
:010487001163
:01048800145f
:010489000171
:01048a00145d
:01048b001060
:01048c00155a
:01048d00105e
:01048e001459
:01048f00115b
:01049000105b
:01049100006a
:010492001059
:010493001058
:010494001057
:010495001452
:010496001550
:010497001153
:01049800144f
:01049900154d
:01049a00154c
:01049b00154b
:01049c00154a
:01049d00104e
:01049e001548
:01049f00104c
:0104a0001546
:0104a100104a
:0104a2001445
:0104a3001543
:0104a4001047
:0104a5002531
:0104a6001441
:0104a700153f
:0104a800143f
:0104a900153d
:0104aa00143d
:0104ab00153b
:0104ac00252a
:0104ad001539
:0104ae002429
:0104af001537
:0104b0001536
:0104b1002525
:0104b2001534
:0104b3002523
:0104b4002522
:0104b5001531
:0104b6002520
:0104b700251f
:0104b800152e
:0104b900251d
:0104ba00142d
:0104bb00251b
:0104bc00142b
:0104bd001529
:0104be002518
:0104bf00102c
:0104c0002516
:0104c1001129
:0104c2002415
:0104c3001523
:0104c4001423
:0104c5002511
:0104c6001124
:0104c700250f
:0104c800141f
:0104c900151d
:0104ca00151c
:0104cb00151b
:0104cc00151a
:0104cd00240a
:0104ce001518
:0104cf001517
:0104d0001417
:0104d1001515
:0104d2002405
:0104d3001513
:0104d4001413
:0104d5001511
:0104d6001510
:0104d7001410
:0104d800140f
:0104d900150d
:0104da00140d
:0104db00150b
:0104dc00150a
:0104dd00140a
:0104de001409
:0104df001507
:0104e0001506
:0104e1001406
:0104e2001504
:0104e3001503
:0104e4000017
:0104e5000016
:0104e6000015
:0104e7000014
:0104e8000013
:0104e9000012
:0104ea000011
:0104eb000010
:0104ec00000f
:0104ed00000e
:0104ee00000d
:0104ef00000c
:0104f000000b
:0104f100000a
:0104f2000009
:0104f3000008
:0104f4000007
:0104f5000006
:0104f6000005
:0104f7000004
:0104f8000003
:0104f9000002
:0104fa000001
:0104fb000000
:0104fc0000ff
:0104fd0000fe
:0104fe0000fd
:0104ff0000fc
:0105000011e9
:0105010014e5
:0105020001f7
:0105030010e7
:0105040015e1
:0105050004f1
:0105060011e3
:0105070004ef
:0105080011e1
:0105090014dd
:01050a0011df
:01050b0000ef
:01050c0015d9
:01050d0010dd
:01050e0001eb
:01050f0014d7
:0105100011d9
:0105110014d5
:0105120015d3
:0105130010d7
:0105140015d1
:0105150010d5
:0105160015cf
:0105170014cf
:0105180011d1
:0105190014cd
:01051a0010d0
:01051b0015ca
:01051c0014ca
:01051d0015c8
:01051e0014c8
:01051f0015c6
:0105200014c6
:0105210015c4
:0105220015c3
:0105230014c3
:0105240015c1
:0105250014c1
:0105260015bf
:0105270014bf
:0105280025ad
:0105290015bc
:01052a0025ab
:01052b0014bb
:01052c0014ba
:01052d0015b8
:01052e0015b7
:01052f0015b6
:0105300025a5
:0105310014b5
:0105320025a3
:0105330014b3
:0105340025a1
:0105350015b0
:0105360024a0
:0105370015ae
:01053800249e
:0105390015ac
:01053a00249c
:01053b0015aa
:01053c002599
:01053d002499
:01053e0015a7
:01053f002497
:0105400015a5
:010541002495
:0105420015a3
:010543002592
:0105440011a5
:0105450015a0
:0105460014a0
:01054700159e
:01054800159d
:01054900258c
:01054a00159b
:01054b00248b
:01054c001599
:01054d001598
:01054e001498
:01054f001596
:010550001595
:010551001495
:010552001593
:010553001493
:010554001591
:010555001491
:010556001490
:01055700158e
:01055800158d
:01055900148d
:01055a00158b
:01055b00158a
:01055c00148a
:01055d001984
:01055e001587
:01055f001586
:010560001486
:010561001584
:010562001583
:010563001483
:010564000096
:010565000095
:010566000094
:010567000093
:010568000092
:010569000091
:01056a000090
:01056b00008f
:01056c00008e
:01056d00008d
:01056e00008c
:01056f00008b
:01057000008a
:010571000089
:010572000088
:010573000087
:010574000086
:010575000085
:010576000084
:010577000083
:010578000082
:010579000081
:01057a000080
:01057b00007f
:01057c00007e
:01057d00007d
:01057e00007c
:01057f00007b
:010580000476
:010581000574
:010582001167
:010583001562
:010584000472
:010585001164
:010586001460
:010587001162
:01058800145e
:010589000170
:01058a001060
:01058b00155a
:01058c00145a
:01058d00115c
:01058e001458
:01058f00105b
:01059000105a
:010591001554
:010592001058
:010593001552
:010594001056
:010595001550
:010596001450
:01059700154e
:01059800144e
:01059900154c
:01059a00154b
:01059b00144b
:01059c001549
:01059d001449
:01059e001547
:01059f001447
:0105a0002535
:0105a1001445
:0105a2001048
:0105a3001542
:0105a4001442
:0105a5002530
:0105a6001440
:0105a700153e
:0105a800153d
:0105a900143d
:0105aa00143c
:0105ab00153a
:0105ac001539
:0105ad002528
:0105ae001438
:0105af002526
:0105b0001436
:0105b1002524
:0105b2001533
:0105b3002522
:0105b4001531
:0105b5002520
:0105b600152f
:0105b700251e
:0105b800251d
:0105b900152c
:0105ba00251b
:0105bb00152a
:0105bc00241a
:0105bd001528
:0105be002517
:0105bf001526
:0105c0002515
:0105c1001524
:0105c2002513
:0105c3001423
:0105c4001521
:0105c5002510
:0105c600151f
:0105c700250e
:0105c800250d
:0105c900151c
:0105ca00151b
:0105cb00151a
:0105cc001519
:0105cd001518
:0105ce001517
:0105cf002506
:0105d0001416
:0105d1001514
:0105d2001513
:0105d3001413
:0105d4002501
:0105d5001411
:0105d600150f
:0105d700150e
:0105d800140e
:0105d900140d
:0105da00150b
:0105db001807
:0105dc001509
:0105dd001409
:0105de001507
:0105df001407
:0105e0001505
:0105e1001504
:0105e2001404
:0105e3001502
:0105e4000016
:0105e5000015
:0105e6000014
:0105e7000013
:0105e8000012
:0105e9000011
:0105ea000010
:0105eb00000f
:0105ec00000e
:0105ed00000d
:0105ee00000c
:0105ef00000b
:0105f000000a
:0105f1000009
:0105f2000008
:0105f3000007
:0105f4000006
:0105f5000005
:0105f6000004
:0105f7000003
:0105f8000002
:0105f9000001
:0105fa000000
:0105fb0000ff
:0105fc0000fe
:0105fd0000fd
:0105fe0000fc
:0105ff0000fb
:0106000011e8
:0106010015e3
:0106020004f3
:0106030011e5
:0106040005f0
:0106050010e4
:0106060005ee
:0106070010e2
:0106080005ec
:0106090010e0
:01060a0014db
:01060b0011dd
:01060c0010dd
:01060d0014d8
:01060e0011da
:01060f0014d6
:0106100015d4
:0106110010d8
:0106120014d3
:0106130014d2
:0106140015d0
:0106150014d0
:0106160011d2
:0106170014ce
:0106180015cc
:0106190014cc
:01061a0015ca
:01061b0025b9
:01061c0014c9
:01061d0015c7
:01061e0025b6
:01061f0014c6
:0106200015c4
:0106210014c4
:0106220015c2
:0106230024b2
:0106240015c0
:0106250014c0
:0106260015be
:0106270024ae
:0106280014bd
:0106290015bb
:01062a0015ba
:01062b0014ba
:01062c0015b8
:01062d0014b8
:01062e0025a6
:01062f0015b5
:0106300015b4
:0106310015b3
:0106320025a2
:0106330015b1
:0106340025a0
:0106350019ab
:01063600259e
:01063700259d
:0106380015ac
:01063900259b
:01063a0014ab
:01063b002599
:01063c0015a8
:01063d002597
:01063e0014a7
:01063f002595
:0106400014a5
:010641002593
:0106420015a2
:010643002591
:0106440015a0
:01064500258f
:01064600159e
:01064700159d
:01064800149d
:01064900258b
:01064a00149b
:01064b002589
:01064c001598
:01064d002488
:01064e001596
:01064f001496
:010650001594
:010651001494
:010652001493
:010653001591
:010654001491
:01065500158f
:01065600148f
:01065700158d
:01065800148d
:01065900158b
:01065a00158a
:01065b002579
:01065c001588
:01065d001587
:01065e001586
:01065f001585
:010660001485
:010661001583
:010662001582
:010663001482
:010664000095
:010665000094
:010666000093
:010667000092
:010668000091
:010669000090
:01066a00008f
:01066b00008e
:01066c00008d
:01066d00008c
:01066e00008b
:01066f00008a
:010670000089
:010671000088
:010672000087
:010673000086
:010674000085
:010675000084
:010676000083
:010677000082
:010678000081
:010679000080
:01067a00007f
:01067b00007e
:01067c00007d
:01067d00007c
:01067e00007b
:01067f00007a
:010680000475
:010681001167
:010682001562
:010683000472
:010684001164
:01068500155f
:01068600145f
:010687000171
:01068800145d
:01068900155b
:01068a00046b
:01068b00145a
:01068c000568
:01068d001458
:01068e001556
:01068f00105a
:010690001554
:010691001454
:010692001156
:010693001452
:010694001451
:01069500154f
:01069600144f
:01069700154d
:01069800154c
:01069900144c
:01069a00154a
:01069b00144a
:01069c001548
:01069d001448
:01069e001546
:01069f001545
:0106a0001445
:0106a1001543
:0106a2001443
:0106a3001541
:0106a4001441
:0106a500252f
:0106a600153e
:0106a700153d
:0106a800153c
:0106a900242c
:0106aa00153a
:0106ab00143a
:0106ac002528
:0106ad001537
:0106ae001536
:0106af001436
:0106b0002524
:0106b1001533
:0106b2001433
:0106b300291d
:0106b4001530
:0106b5002420
:0106b600142f
:0106b700251d
:0106b800241d
:0106b900251b
:0106ba00251a
:0106bb00142a
:0106bc002518
:0106bd001527
:0106be002516
:0106bf002515
:0106c0002514
:0106c1001523
:0106c2002413
:0106c3001521
:0106c4002510
:0106c500151f
:0106c600250e
:0106c700250d
:0106c800151c
:0106c900151b
:0106ca00250a
:0106cb001519
:0106cc001518
:0106cd001517
:0106ce001516
:0106cf001515
:0106d0002504
:0106d1001513
:0106d2001512
:0106d3001412
:0106d4001510
:0106d500180c
:0106d600150e
:0106d70024fe
:0106d800150c
:0106d900140c
:0106da00140b
:0106db001509
:0106dc001409
:0106dd001507
:0106de001407
:0106df001505
:0106e0001504
:0106e1001404
:0106e2001502
:0106e3001501
:0106e4000015
:0106e5000014
:0106e6000013
:0106e7000012
:0106e8000011
:0106e9000010
:0106ea00000f
:0106eb00000e
:0106ec00000d
:0106ed00000c
:0106ee00000b
:0106ef00000a
:0106f0000009
:0106f1000008
:0106f2000007
:0106f3000006
:0106f4000005
:0106f5000004
:0106f6000003
:0106f7000002
:0106f8000001
:0106f9000000
:0106fa0000ff
:0106fb0000fe
:0106fc0000fd
:0106fd0000fc
:0106fe0000fb
:0106ff0000fa
:0107000015e3
:0107010005f2
:0107020000f6
:0107030015e0
:0107040014e0
:0107050001f2
:0107060014de
:0107070015dc
:0107080004ec
:0107090011de
:01070a0014da
:01070b0011dc
:01070c0014d8
:01070d0011da
:01070e0014d6
:01070f0015d4
:0107100014d4
:0107110015d2
:0107120014d2
:0107130011d4
:0107140015cf
:0107150014cf
:0107160015cd
:0107170015cc
:0107180014cc
:0107190015ca
:01071a0014ca
:01071b0015c8
:01071c0015c7
:01071d0015c6
:01071e0014c6
:01071f0015c4
:0107200015c3
:0107210014c3
:0107220015c1
:0107230014c1
:0107240015bf
:0107250014bf
:0107260014be
:0107270015bc
:0107280014bc
:0107290015ba
:01072a0014ba
:01072b0015b8
:01072c0015b7
:01072d0014b7
:01072e0025a5
:01072f0015b4
:0107300018b0
:0107310025a2
:0107320015b1
:0107330014b1
:0107340015af
:0107350019aa
:010736002a98
:010737001aa7
:010738001aa6
:010739003887
:01073a00348a
:01073b003885
:01073c002498
:01073d002596
:01073e0015a5
:01073f0015a4
:010740002593
:010741002592
:0107420015a1
:010743002590
:01074400159f
:01074500258e
:01074600159d
:01074700159c
:01074800258b
:01074900159a
:01074a001599
:01074b001598
:01074c002488
:01074d001596
:01074e002486
:01074f001594
:010750001494
:010751001592
:010752001492
:010753001590
:010754001490
:01075500158e
:01075600158d
:01075700158c
:01075800148c
:01075900158a
:01075a001589
:01075b001489
:01075c001983
:01075d001586
:01075e001585
:01075f001485
:010760001583
:010761001582
:010762001482
:010763001580
:010764000094
:010765000093
:010766000092
:010767000091
:010768000090
:01076900008f
:01076a00008e
:01076b00008d
:01076c00008c
:01076d00008b
:01076e00008a
:01076f000089
:010770000088
:010771000087
:010772000086
:010773000085
:010774000084
:010775000083
:010776000082
:010777000081
:010778000080
:01077900007f
:01077a00007e
:01077b00007d
:01077c00007c
:01077d00007b
:01077e00007a
:01077f000079
:010780000177
:010781001463
:010782001561
:010783001560
:01078400056f
:01078500145f
:01078600155d
:010787000071
:01078800155b
:01078900105f
:01078a000569
:01078b001459
:01078c001557
:01078d001457
:01078e001555
:01078f001059
:010790001553
:010791001453
:010792001551
:010793001451
:010794001450
:01079500144f
:01079600154d
:01079700144d
:01079800154b
:01079900154a
:01079a001549
:01079b001449
:01079c001547
:01079d001447
:01079e001545
:01079f001544
:0107a0002434
:0107a1001542
:0107a2001442
:0107a3001540
:0107a4001440
:0107a500153e
:0107a600153d
:0107a700242d
:0107a800153b
:0107a900153a
:0107aa001836
:0107ab001538
:0107ac001438
:0107ad001536
:0107ae001931
:0107af001534
:0107b0001533
:0107b1001532
:0107b2001531
:0107b3001530
:0107b400291b
:0107b5002f14
:0107b6001f23
:0107b7001f22
:0107b8001f21
:0107b9001b24
:0107ba00340a
:0107bb003409
:0107bc003408
:0107bd003407
:0107be002416
:0107bf002514
:0107c0002513
:0107c1001522
:0107c2002511
:0107c3002510
:0107c400151f
:0107c500250e
:0107c600151d
:0107c700250c
:0107c800151b
:0107c900250a
:0107ca00141a
:0107cb002508
:0107cc001517
:0107cd001516
:0107ce001515
:0107cf001514
:0107d0002503
:0107d1001413
:0107d2001511
:0107d3002401
:0107d400150f
:0107d500150e
:0107d600140e
:0107d700140d
:0107d8001907
:0107d900150a
:0107da00140a
:0107db001508
:0107dc001507
:0107dd001506
:0107de001406
:0107df001504
:0107e0001503
:0107e1001403
:0107e2001501
:0107e3001500
:0107e4000014
:0107e5000013
:0107e6000012
:0107e7000011
:0107e8000010
:0107e900000f
:0107ea00000e
:0107eb00000d
:0107ec00000c
:0107ed00000b
:0107ee00000a
:0107ef000009
:0107f0000008
:0107f1000007
:0107f2000006
:0107f3000005
:0107f4000004
:0107f5000003
:0107f6000002
:0107f7000001
:0107f8000000
:0107f90000ff
:0107fa0000fe
:0107fb0000fd
:0107fc0000fc
:0107fd0000fb
:0107fe0000fa
:0107ff0000f9
:0108000015e2
:0108010004f2
:0108020015e0
:0108030000f4
:0108040015de
:0108050015dd
:0108060000f1
:0108070015db
:0108080014db
:0108090005e9
:01080a0014d9
:01080b0011db
:01080c0014d7
:01080d0015d5
:01080e0014d5
:01080f0015d3
:0108100014d3
:0108110015d1
:0108120014d1
:0108130015cf
:0108140015ce
:0108150015cd
:0108160014cd
:0108170015cb
:0108180014cb
:0108190015c9
:01081a0014c9
:01081b0015c7
:01081c0015c6
:01081d0014c6
:01081e0015c4
:01081f0014c4
:0108200015c2
:0108210014c2
:0108220015c0
:0108230014c0
:0108240015be
:0108250018ba
:0108260015bc
:0108270019b7
:0108280014bb
:0108290015b9
:01082a0014b9
:01082b0015b7
:01082c0018b3
:01082d0015b5
:01082e0014b5
:01082f0015b3
:0108300014b3
:0108310015b1
:01083200289d
:01083300299b
:010834003c87
:010835002d95
:0108360019a8
:010837000bb5
:010838000bb4
:010839000bb3
:01083a001aa3
:01083b00209c
:01083c003487
:01083d003486
:01083e003485
:01083f003484
:0108400015a2
:010841002591
:010842002590
:01084300159f
:01084400258e
:01084500159d
:01084600258c
:01084700159b
:01084800258a
:010849001599
:01084a001598
:01084b001597
:01084c001596
:01084d001496
:01084e001594
:01084f001494
:010850001592
:010851001591
:010852001590
:01085300158f
:01085400148f
:01085500158d
:01085600158c
:01085700158b
:01085800148b
:010859001589
:01085a001588
:01085b001587
:01085c001487
:01085d001585
:01085e001584
:01085f001583
:010860001483
:010861001581
:010862001481
:010863001480
:010864000093
:010865000092
:010866000091
:010867000090
:01086800008f
:01086900008e
:01086a00008d
:01086b00008c
:01086c00008b
:01086d00008a
:01086e000089
:01086f000088
:010870000087
:010871000086
:010872000085
:010873000084
:010874000083
:010875000082
:010876000081
:010877000080
:01087800007f
:01087900007e
:01087a00007d
:01087b00007c
:01087c00007b
:01087d00007a
:01087e000079
:01087f000078
:010880001562
:010881001561
:010882001560
:01088300155f
:01088400046f
:01088500155d
:01088600155c
:01088700046c
:01088800115e
:01088900145a
:01088a001558
:01088b001458
:01088c000566
:01088d001456
:01088e001554
:01088f001454
:010890001552
:010891001452
:010892001550
:010893001450
:01089400144f
:01089500154d
:01089600154c
:01089700144c
:01089800154a
:01089900144a
:01089a001548
:01089b001448
:01089c001546
:01089d001941
:01089e001445
:01089f001543
:0108a0001542
:0108a1001442
:0108a2001540
:0108a300183c
:0108a400153e
:0108a500143e
:0108a600143d
:0108a700153b
:0108a800143b
:0108a9001935
:0108aa001439
:0108ab001537
:0108ac001536
:0108ad001931
:0108ae002524
:0108af001434
:0108b0001532
:0108b100291d
:0108b2003c09
:0108b3002c18
:0108b400281b
:0108b500281a
:0108b6002819
:0108b7001a26
:0108b8000b34
:0108b9000b33
:0108ba000b32
:0108bb00211b
:0108bc00201b
:0108bd00201a
:0108be003405
:0108bf003404
:0108c0003403
:0108c1001521
:0108c2001421
:0108c300250f
:0108c400151e
:0108c500250d
:0108c600151c
:0108c700250b
:0108c800151a
:0108c9002509
:0108ca001518
:0108cb002408
:0108cc001516
:0108cd002505
:0108ce001514
:0108cf001513
:0108d0001413
:0108d1001511
:0108d2001411
:0108d300150f
:0108d400150e
:0108d500140e
:0108d600140d
:0108d700150b
:0108d800150a
:0108d900140a
:0108da001409
:0108db001507
:0108dc001506
:0108dd001406
:0108de001504
:0108df001404
:0108e0001502
:0108e1001501
:0108e2001500
:0108e30015ff
:0108e4000013
:0108e5000012
:0108e6000011
:0108e7000010
:0108e800000f
:0108e900000e
:0108ea00000d
:0108eb00000c
:0108ec00000b
:0108ed00000a
:0108ee000009
:0108ef000008
:0108f0000007
:0108f1000006
:0108f2000005
:0108f3000004
:0108f4000003
:0108f5000002
:0108f6000001
:0108f7000000
:0108f80000ff
:0108f90000fe
:0108fa0000fd
:0108fb0000fc
:0108fc0000fb
:0108fd0000fa
:0108fe0000f9
:0108ff0000f8
:0109000014e2
:0109010004f1
:0109020004f0
:0109030014df
:0109040015dd
:0109050004ed
:0109060015db
:0109070014db
:0109080015d9
:0109090014d9
:01090a0004e8
:01090b0015d6
:01090c0014d6
:01090d0015d4
:01090e0014d4
:01090f0015d2
:0109100014d2
:0109110015d0
:0109120014d0
:0109130014cf
:0109140015cd
:0109150014cd
:0109160014cc
:0109170015ca
:0109180015c9
:0109190015c8
:01091a0018c4
:01091b0015c6
:01091c0014c6
:01091d0014c5
:01091e0015c3
:01091f0019be
:0109200014c2
:0109210019bc
:0109220014c0
:0109230015be
:0109240014be
:0109250019b8
:0109260015bb
:0109270018b7
:0109280015b9
:0109290014b9
:01092a0015b7
:01092b0018b3
:01092c0014b6
:01092d0014b5
:01092e0015b3
:01092f0015b2
:010930002c9a
:010931003c89
:01093200289c
:01093300289b
:01093400289a
:010935002899
:0109360018a8
:0109370019a6
:010938000bb3
:010939000bb2
:01093a000bb1
:01093b002497
:01093c00209a
:01093d002099
:01093e002098
:01093f002097
:010940003482
:01094100397c
:01094200268e
:01094300149f
:01094400258d
:01094500159c
:01094600258b
:01094700159a
:010948001599
:010949001598
:01094a001597
:01094b001596
:01094c001595
:01094d001594
:01094e001593
:01094f001592
:010950002581
:010951001491
:01095200158f
:01095300158e
:01095400247e
:01095500158c
:01095600158b
:01095700257a
:01095800148a
:010959001588
:01095a001587
:01095b001487
:01095c001585
:01095d001584
:01095e001583
:01095f001582
:010960001482
:010961001580
:010962001480
:01096300157e
:010964000092
:010965000091
:010966000090
:01096700008f
:01096800008e
:01096900008d
:01096a00008c
:01096b00008b
:01096c00008a
:01096d000089
:01096e000088
:01096f000087
:010970000086
:010971000085
:010972000084
:010973000083
:010974000082
:010975000081
:010976000080
:01097700007f
:01097800007e
:01097900007d
:01097a00007c
:01097b00007b
:01097c00007a
:01097d000079
:01097e000078
:01097f000077
:010980000571
:010981001560
:01098200155f
:01098300155e
:01098400046e
:01098500155c
:01098600145c
:01098700056a
:01098800145a
:010989000469
:01098a001557
:01098b001457
:01098c001555
:01098d001455
:01098e001454
:01098f001453
:010990001551
:010991001451
:010992001450
:01099300154e
:01099400144e
:01099500144d
:01099600154b
:01099700154a
:01099800144a
:010999001449
:01099a001547
:01099b001447
:01099c001941
:01099d001544
:01099e001543
:01099f001443
:0109a0001541
:0109a1001441
:0109a200153f
:0109a300143f
:0109a400183a
:0109a500153c
:0109a600143c
:0109a700153a
:0109a800143a
:0109a9001538
:0109aa001933
:0109ab001437
:0109ac001535
:0109ad001534
:0109ae00192f
:0109af003c0b
:0109b0003c0a
:0109b100281d
:0109b200281c
:0109b300281b
:0109b400182a
:0109b5001829
:0109b6001828
:0109b7001827
:0109b8001a24
:0109b9000b32
:0109ba000636
:0109bb00201b
:0109bc00300a
:0109bd001029
:0109be001523
:0109bf002017
:0109c0002016
:0109c1003500
:0109c2003ff5
:0109c3002a09
:0109c400151d
:0109c500141d
:0109c600151b
:0109c700250a
:0109c8001519
:0109c9002508
:0109ca001517
:0109cb002506
:0109cc001515
:0109cd002405
:0109ce001513
:0109cf001413
:0109d0001511
:0109d1001510
:0109d200150f
:0109d300140f
:0109d400150d
:0109d500150c
:0109d600150b
:0109d700140b
:0109d8001509
:0109d9001508
:0109da001408
:0109db001506
:0109dc001505
:0109dd001504
:0109de001404
:0109df001502
:0109e0001501
:0109e1001500
:0109e20015ff
:0109e30015fe
:0109e4000012
:0109e5000011
:0109e6000010
:0109e700000f
:0109e800000e
:0109e900000d
:0109ea00000c
:0109eb00000b
:0109ec00000a
:0109ed000009
:0109ee000008
:0109ef000007
:0109f0000006
:0109f1000005
:0109f2000004
:0109f3000003
:0109f4000002
:0109f5000001
:0109f6000000
:0109f70000ff
:0109f80000fe
:0109f90000fd
:0109fa0000fc
:0109fb0000fb
:0109fc0000fa
:0109fd0000f9
:0109fe0000f8
:0109ff0000f7
:010a000014e1
:010a010014e0
:010a020005ee
:010a030014de
:010a040015dc
:010a050014dc
:010a060005ea
:010a070014da
:010a080015d8
:010a090014d8
:010a0a0014d7
:010a0b0014d6
:010a0c0004e5
:010a0d0015d3
:010a0e0014d3
:010a0f0015d1
:010a100014d1
:010a110015cf
:010a120014cf
:010a130015cd
:010a140014cd
:010a150015cb
:010a160014cb
:010a170014ca
:010a180015c8
:010a190015c7
:010a1a0014c7
:010a1b0015c5
:010a1c0014c5
:010a1d0014c4
:010a1e0019be
:010a1f0014c2
:010a200019bc
:010a210015bf
:010a220014bf
:010a230015bd
:010a240015bc
:010a250014bc
:010a260019b6
:010a270014ba
:010a280019b4
:010a290014b8
:010a2a0014b7
:010a2b0015b5
:010a2c0014b5
:010a2d0019af
:010a2e00388f
:010a2f00289e
:010a3000289d
:010a310018ac
:010a3200289b
:010a330018aa
:010a340015ac
:010a350018a8
:010a36002996
:010a370018a6
:010a38001aa3
:010a39000fad
:010a3a000bb0
:010a3b00209a
:010a3c002099
:010a3d0005b3
:010a3e0001b6
:010a3f0001b5
:010a400010a5
:010a41002094
:010a42002a89
:010a43003f73
:010a44003e73
:010a4500258b
:010a4600159a
:010a47001599
:010a48002588
:010a49001597
:010a4a001596
:010a4b001595
:010a4c001594
:010a4d001593
:010a4e001592
:010a4f001591
:010a50001590
:010a51001490
:010a5200158e
:010a5300257d
:010a5400148d
:010a5500158b
:010a5600148b
:010a57001589
:010a58001489
:010a59001587
:010a5a001487
:010a5b001585
:010a5c001485
:010a5d001583
:010a5e001582
:010a5f001581
:010a60001481
:010a6100157f
:010a6200147f
:010a6300157d
:010a64000091
:010a65000090
:010a6600008f
:010a6700008e
:010a6800008d
:010a6900008c
:010a6a00008b
:010a6b00008a
:010a6c000089
:010a6d000088
:010a6e000087
:010a6f000086
:010a70000085
:010a71000084
:010a72000083
:010a73000082
:010a74000081
:010a75000080
:010a7600007f
:010a7700007e
:010a7800007d
:010a7900007c
:010a7a00007b
:010a7b00007a
:010a7c000079
:010a7d000078
:010a7e000077
:010a7f000076
:010a80001560
:010a81000470
:010a8200155e
:010a8300046e
:010a8400155c
:010a8500145c
:010a8600155a
:010a8700046a
:010a88001459
:010a89000567
:010a8a001457
:010a8b001555
:010a8c001455
:010a8d001454
:010a8e000562
:010a8f001452
:010a90001451
:010a91001450
:010a9200154e
:010a9300144e
:010a9400154c
:010a9500144c
:010a9600154a
:010a97001945
:010a98001449
:010a99001547
:010a9a001447
:010a9b001545
:010a9c001544
:010a9d001444
:010a9e001542
:010a9f001541
:010aa0001441
:010aa100153f
:010aa200143f
:010aa300183a
:010aa400143d
:010aa500153b
:010aa600143b
:010aa7001539
:010aa8001439
:010aa9001537
:010aaa001932
:010aab001436
:010aac001534
:010aad00291f
:010aae002c1b
:010aaf00281e
:010ab000182d
:010ab100281c
:010ab200182b
:010ab300142e
:010ab4001829
:010ab500152b
:010ab6001827
:010ab7001925
:010ab8001a23
:010ab9000b31
:010aba001a21
:010abb00201a
:010abc002019
:010abd001523
:010abe000037
:010abf001521
:010ac0002015
:010ac1002014
:010ac200250e
:010ac3003ff3
:010ac4003ff2
:010ac5003ff1
:010ac600250a
:010ac700141a
:010ac8001518
:010ac9002507
:010aca001417
:010acb002505
:010acc001514
:010acd001513
:010ace001413
:010acf001511
:010ad0001510
:010ad100150f
:010ad200140f
:010ad300150d
:010ad400150c
:010ad500140c
:010ad600150a
:010ad7001509
:010ad8001409
:010ad9001507
:010ada001506
:010adb001505
:010adc001504
:010add001404
:010ade001502
:010adf001501
:010ae0001500
:010ae10015ff
:010ae20015fe
:010ae30014fe
:010ae4000011
:010ae5000010
:010ae600000f
:010ae700000e
:010ae800000d
:010ae900000c
:010aea00000b
:010aeb00000a
:010aec000009
:010aed000008
:010aee000007
:010aef000006
:010af0000005
:010af1000004
:010af2000003
:010af3000002
:010af4000001
:010af5000000
:010af60000ff
:010af70000fe
:010af80000fd
:010af90000fc
:010afa0000fb
:010afb0000fa
:010afc0000f9
:010afd0000f8
:010afe0000f7
:010aff0000f6
:010b000014e0
:010b010015de
:010b020014de
:010b030015dc
:010b040014dc
:010b050005ea
:010b060014da
:010b070015d8
:010b080014d8
:010b090014d7
:010b0a0004e6
:010b0b0014d5
:010b0c0005e3
:010b0d0014d3
:010b0e0014d2
:010b0f0015d0
:010b100014d0
:010b110015ce
:010b120014ce
:010b130014cd
:010b140014cc
:010b150015ca
:010b160014ca
:010b170014c9
:010b180015c7
:010b190014c7
:010b1a0015c5
:010b1b0018c1
:010b1c0014c4
:010b1d0015c2
:010b1e0014c2
:010b1f0014c1
:010b200019bb
:010b210014bf
:010b220015bd
:010b230015bc
:010b240014bc
:010b250015ba
:010b260014ba
:010b270015b8
:010b280014b8
:010b290015b6
:010b2a0014b6
:010b2b0014b5
:010b2c00299f
:010b2d00299e
:010b2e00299d
:010b2f0019ac
:010b3000299b
:010b310019aa
:010b320014ae
:010b330019a8
:010b340014ac
:010b350018a7
:010b360015a9
:010b370019a4
:010b38001aa2
:010b39000bb0
:010b3a0016a4
:010b3b002099
:010b3c002098
:010b3d002097
:010b3e002591
:010b3f0010a5
:010b40002094
:010b4100149f
:010b4200258d
:010b4300258c
:010b44003a76
:010b45003f70
:010b46003f6f
:010b47002a83
:010b48001498
:010b49001596
:010b4a001595
:010b4b001594
:010b4c002583
:010b4d001592
:010b4e001591
:010b4f001590
:010b50001490
:010b5100158e
:010b5200158d
:010b5300158c
:010b5400148c
:010b5500158a
:010b56001589
:010b57001489
:010b58001587
:010b59001487
:010b5a001585
:010b5b001485
:010b5c001583
:010b5d001582
:010b5e001581
:010b5f001481
:010b6000157f
:010b61001083
:010b6200157d
:010b6300157c
:010b64000090
:010b6500008f
:010b6600008e
:010b6700008d
:010b6800008c
:010b6900008b
:010b6a00008a
:010b6b000089
:010b6c000088
:010b6d000087
:010b6e000086
:010b6f000085
:010b70000084
:010b71000083
:010b72000082
:010b73000081
:010b74000080
:010b7500007f
:010b7600007e
:010b7700007d
:010b7800007c
:010b7900007b
:010b7a00007a
:010b7b000079
:010b7c000078
:010b7d000077
:010b7e000076
:010b7f000075
:010b8000056f
:010b8100145f
:010b8200056d
:010b8300145d
:010b8400046c
:010b8500145b
:010b86001559
:010b87000469
:010b88001458
:010b89000467
:010b8a001555
:010b8b001455
:010b8c001454
:010b8d001453
:010b8e001551
:010b8f001451
:010b9000055f
:010b9100144f
:010b9200144e
:010b9300144d
:010b9400154b
:010b9500144b
:010b96001846
:010b97001548
:010b98001448
:010b99001843
:010b9a001545
:010b9b001445
:010b9c001543
:010b9d001542
:010b9e00183e
:010b9f001540
:010ba000153f
:010ba100143f
:010ba200153d
:010ba300143d
:010ba400153b
:010ba500143b
:010ba6001935
:010ba7001439
:010ba8001933
:010ba9001536
:010baa001436
:010bab002920
:010bac00291f
:010bad00291e
:010bae00291d
:010baf00192c
:010bb000251f
:010bb100192a
:010bb2001929
:010bb3001829
:010bb4001927
:010bb5001827
:010bb6001925
:010bb7001924
:010bb8001a22
:010bb9000b30
:010bba000139
:010bbb002019
:010bbc002018
:010bbd002017
:010bbe002016
:010bbf001025
:010bc0002014
:010bc100250e
:010bc2002a08
:010bc300240d
:010bc400240c
:010bc500200f
:010bc60034fa
:010bc70039f4
:010bc8002507
:010bc9001516
:010bca001515
:010bcb001514
:010bcc001414
:010bcd001512
:010bce001511
:010bcf001411
:010bd000150f
:010bd100150e
:010bd200140e
:010bd300140d
:010bd400150b
:010bd500150a
:010bd600140a
:010bd7001508
:010bd8001408
:010bd900110a
:010bda001406
:010bdb001108
:010bdc001404
:010bdd001106
:010bde001402
:010bdf001104
:010be00015ff
:010be10015fe
:010be20014fe
:010be30015fc
:010be4000010
:010be500000f
:010be600000e
:010be700000d
:010be800000c
:010be900000b
:010bea00000a
:010beb000009
:010bec000008
:010bed000007
:010bee000006
:010bef000005
:010bf0000004
:010bf1000003
:010bf2000002
:010bf3000001
:010bf4000000
:010bf50000ff
:010bf60000fe
:010bf70000fd
:010bf80000fc
:010bf90000fb
:010bfa0000fa
:010bfb0000f9
:010bfc0000f8
:010bfd0000f7
:010bfe0000f6
:010bff0000f5
:010c000014df
:010c010004ee
:010c020014dd
:010c030015db
:010c040015da
:010c050004ea
:010c060014d9
:010c070015d7
:010c080004e7
:010c090015d5
:010c0a0014d5
:010c0b0004e4
:010c0c0014d3
:010c0d0005e1
:010c0e0014d1
:010c0f0014d0
:010c100014cf
:010c110014ce
:010c120009d8
:010c130014cc
:010c140014cb
:010c150019c5
:010c160014c9
:010c170015c7
:010c180014c7
:010c190005d5
:010c1a0014c5
:010c1b0015c3
:010c1c0004d3
:010c1d0014c2
:010c1e0015c0
:010c1f0014c0
:010c200018bb
:010c210015bd
:010c220014bd
:010c230015bb
:010c240014bb
:010c250015b9
:010c260014b9
:010c270015b7
:010c280014b7
:010c290014b6
:010c2a0019b0
:010c2b002a9e
:010c2c00299e
:010c2d0019ad
:010c2e0019ac
:010c2f00299b
:010c300019aa
:010c310019a9
:010c32002998
:010c330019a7
:010c340019a6
:010c350015a9
:010c360019a4
:010c370019a3
:010c38001ba0
:010c39000baf
:010c3a0000b9
:010c3b0010a8
:010c3c002097
:010c3d002096
:010c3e002095
:010c3f002094
:010c40002093
:010c41003a78
:010c42002a87
:010c4300159b
:010c4400109f
:010c4500149a
:010c4600109d
:010c47002488
:010c48001596
:010c49001595
:010c4a001495
:010c4b001593
:010c4c001592
:010c4d001591
:010c4e002580
:010c4f00158f
:010c5000158e
:010c5100148e
:010c5200158c
:010c5300158b
:010c5400148b
:010c55001589
:010c56001489
:010c57001587
:010c58001586
:010c59001486
:010c5a001584
:010c5b001583
:010c5c001582
:010c5d001482
:010c5e001580
:010c5f00157f
:010c6000147f
:010c61001181
:010c6200157c
:010c6300157b
:010c6400008f
:010c6500008e
:010c6600008d
:010c6700008c
:010c6800008b
:010c6900008a
:010c6a000089
:010c6b000088
:010c6c000087
:010c6d000086
:010c6e000085
:010c6f000084
:010c70000083
:010c71000082
:010c72000081
:010c73000080
:010c7400007f
:010c7500007e
:010c7600007d
:010c7700007c
:010c7800007b
:010c7900007a
:010c7a000079
:010c7b000078
:010c7c000077
:010c7d000076
:010c7e000075
:010c7f000074
:010c8000155e
:010c8100145e
:010c8200056c
:010c8300046c
:010c8400145b
:010c85001559
:010c86000469
:010c87001458
:010c88001457
:010c89000466
:010c8a001455
:010c8b001454
:010c8c001453
:010c8d001452
:010c8e000461
:010c8f00154f
:010c9000184b
:010c9100144e
:010c9200144d
:010c9300144c
:010c9400045b
:010c9500144a
:010c96001548
:010c97000458
:010c98001942
:010c99001446
:010c9a001544
:010c9b001840
:010c9c001542
:010c9d001442
:010c9e001540
:010c9f00153f
:010ca000143f
:010ca100153d
:010ca2001839
:010ca300143c
:010ca400153a
:010ca500143a
:010ca6001538
:010ca7001438
:010ca8001536
:010ca9002921
:010caa002920
:010cab00291f
:010cac00192e
:010cad00291d
:010cae00192c
:010caf00152f
:010cb000291a
:010cb1001929
:010cb200162b
:010cb3002917
:010cb4001a25
:010cb5001a24
:010cb6001a23
:010cb7001a22
:010cb8001a21
:010cb9001f1b
:010cba000534
:010cbb001028
:010cbc001027
:010cbd001026
:010cbe001025
:010cbf002014
:010cc0002013
:010cc100141e
:010cc200151c
:010cc300141c
:010cc400151a
:010cc5001519
:010cc6001518
:010cc7001517
:010cc8001516
:010cc9001416
:010cca001514
:010ccb001414
:010ccc001512
:010ccd001412
:010cce001510
:010ccf001410
:010cd000150e
:010cd100150d
:010cd200140d
:010cd300150b
:010cd400150a
:010cd5001509
:010cd600110c
:010cd7001408
:010cd8001506
:010cd900100a
:010cda001405
:010cdb001008
:010cdc001502
:010cdd001501
:010cde001005
:010cdf0015ff
:010ce00015fe
:010ce10014fe
:010ce20015fc
:010ce30014fc
:010ce400000f
:010ce500000e
:010ce600000d
:010ce700000c
:010ce800000b
:010ce900000a
:010cea000009
:010ceb000008
:010cec000007
:010ced000006
:010cee000005
:010cef000004
:010cf0000003
:010cf1000002
:010cf2000001
:010cf3000000
:010cf40000ff
:010cf50000fe
:010cf60000fd
:010cf70000fc
:010cf80000fb
:010cf90000fa
:010cfa0000f9
:010cfb0000f8
:010cfc0000f7
:010cfd0000f6
:010cfe0000f5
:010cff0000f4
:010d000004ee
:010d010014dd
:010d020014dc
:010d030005ea
:010d040014da
:010d050004e9
:010d060015d7
:010d070004e7
:010d080015d5
:010d090014d5
:010d0a0004e4
:010d0b0014d3
:010d0c0004e2
:010d0d0014d1
:010d0e0014d0
:010d0f0014cf
:010d100004de
:010d110014cd
:010d120005db
:010d130014cb
:010d140014ca
:010d150014c9
:010d160014c8
:010d170014c7
:010d180014c6
:010d190015c4
:010d1a0014c4
:010d1b0015c2
:010d1c0014c2
:010d1d0009cc
:010d1e0014c0
:010d1f0014bf
:010d200015bd
:010d210014bd
:010d220015bb
:010d230015ba
:010d240014ba
:010d250014b9
:010d260014b8
:010d270015b6
:010d28002e9c
:010d290029a0
:010d2a0019af
:010d2b0019ae
:010d2c00299d
:010d2d0019ac
:010d2e00299b
:010d2f0019aa
:010d300019a9
:010d31002998
:010d320019a7
:010d330019a6
:010d340015a9
:010d35001aa3
:010d36001aa2
:010d37001aa1
:010d38000baf
:010d39001f9a
:010d3a0006b2
:010d3b0000b7
:010d3c0010a6
:010d3d0010a5
:010d3e002094
:010d3f00248f
:010d400010a2
:010d410000b1
:010d4200159b
:010d4300159a
:010d44002589
:010d45001598
:010d46001597
:010d47001497
:010d48001595
:010d49001594
:010d4a001593
:010d4b001592
:010d4c001591
:010d4d001590
:010d4e00158f
:010d4f00158e
:010d5000158d
:010d5100148d
:010d5200158b
:010d5300158a
:010d5400148a
:010d55001588
:010d56001488
:010d57001586
:010d58001486
:010d59001584
:010d5a001583
:010d5b001582
:010d5c001482
:010d5d001580
:010d5e00157f
:010d5f00147f
:010d6000157d
:010d6100157c
:010d6200157b
:010d6300157a
:010d6400008e
:010d6500008d
:010d6600008c
:010d6700008b
:010d6800008a
:010d69000089
:010d6a000088
:010d6b000087
:010d6c000086
:010d6d000085
:010d6e000084
:010d6f000083
:010d70000082
:010d71000081
:010d72000080
:010d7300007f
:010d7400007e
:010d7500007d
:010d7600007c
:010d7700007b
:010d7800007a
:010d79000079
:010d7a000078
:010d7b000077
:010d7c000076
:010d7d000075
:010d7e000074
:010d7f000073
:010d8000056d
:010d8100145d
:010d8200056b
:010d8300145b
:010d8400046a
:010d85001558
:010d86000468
:010d87001457
:010d88001456
:010d89000465
:010d8a001454
:010d8b000463
:010d8c001452
:010d8d000560
:010d8e001450
:010d8f00045f
:010d9000144e
:010d9100144d
:010d9200144c
:010d9300144b
:010d9400144a
:010d95000459
:010d96001943
:010d97001447
:010d98001545
:010d99001445
:010d9a001444
:010d9b000453
:010d9c001541
:010d9d001441
:010d9e001440
:010d9f00153e
:010da000044e
:010da100143d
:010da200143c
:010da300143b
:010da400143a
:010da5001439
:010da6001933
:010da7002922
:010da8002921
:010da9001930
:010daa00192f
:010dab00281f
:010dac00182e
:010dad001431
:010dae00192b
:010daf00291a
:010db000152d
:010db1001928
:010db200152b
:010db3001926
:010db4001925
:010db5001924
:010db6001626
:010db7001a21
:010db8000634
:010db9000633
:010dba000b2d
:010dbb000532
:010dbc000036
:010dbd001025
:010dbe003004
:010dbf00240f
:010dc0000032
:010dc100151c
:010dc200240c
:010dc300151a
:010dc400141a
:010dc5001518
:010dc6001418
:010dc7001516
:010dc8001515
:010dc9001514
:010dca001414
:010dcb001512
:010dcc001412
:010dcd001510
:010dce001410
:010dcf00150e
:010dd000140e
:010dd100150c
:010dd200110f
:010dd300140b
:010dd4001509
:010dd5001409
:010dd6001507
:010dd700110a
:010dd8001505
:010dd9001405
:010dda001107
:010ddb001403
:010ddc001501
:010ddd001500
:010dde001400
:010ddf0015fe
:010de00015fd
:010de10015fc
:010de20014fc
:010de30015fa
:010de400000e
:010de500000d
:010de600000c
:010de700000b
:010de800000a
:010de9000009
:010dea000008
:010deb000007
:010dec000006
:010ded000005
:010dee000004
:010def000003
:010df0000002
:010df1000001
:010df2000000
:010df30000ff
:010df40000fe
:010df50000fd
:010df60000fc
:010df70000fb
:010df80000fa
:010df90000f9
:010dfa0000f8
:010dfb0000f7
:010dfc0000f6
:010dfd0000f5
:010dfe0000f4
:010dff0000f3
:010e000014dd
:010e010004ec
:010e020014db
:010e030004ea
:010e040015d8
:010e050004e8
:010e060014d7
:010e070005e5
:010e080004e5
:010e090014d4
:010e0a0004e3
:010e0b0014d2
:010e0c0004e1
:010e0d0014d0
:010e0e0014cf
:010e0f0014ce
:010e100014cd
:010e110004dc
:010e120014cb
:010e130004da
:010e140014c9
:010e150014c8
:010e160014c7
:010e170004d6
:010e180014c5
:010e190009cf
:010e1a0014c3
:010e1b0015c1
:010e1c0014c1
:010e1d0014c0
:010e1e0005ce
:010e1f0014be
:010e200014bd
:010e210015bb
:010e220014bb
:010e230015b9
:010e240004c9
:010e250019b3
:010e26002aa1
:010e270029a1
:010e280019b0
:010e290028a0
:010e2a00299e
:010e2b0015b1
:010e2c0019ac
:010e2d0019ab
:010e2e0015ae
:010e2f0019a9
:010e300019a8
:010e310019a7
:010e320019a6
:010e330019a5
:010e34002994
:010e350019a3
:010e360019a2
:010e37001aa0
:010e380016a3
:010e390005b3
:010e3a0006b1
:010e3b001b9b
:010e3c0001b4
:010e3d0001b3
:010e3e00149f
:010e3f0000b2
:010e4000159c
:010e41001997
:010e4200159a
:010e4300149a
:010e44001598
:010e45001597
:010e46001596
:010e47001496
:010e48001594
:010e49001494
:010e4a001592
:010e4b001591
:010e4c001590
:010e4d00257f
:010e4e00158e
:010e4f00158d
:010e5000158c
:010e5100158b
:010e5200148b
:010e53001589
:010e54001588
:010e55001587
:010e56001487
:010e57001486
:010e58001584
:010e59001583
:010e5a001483
:010e5b001581
:010e5c001580
:010e5d001480
:010e5e00157e
:010e5f00157d
:010e6000147d
:010e6100157b
:010e6200157a
:010e63001579
:010e6400008d
:010e6500008c
:010e6600008b
:010e6700008a
:010e68000089
:010e69000088
:010e6a000087
:010e6b000086
:010e6c000085
:010e6d000084
:010e6e000083
:010e6f000082
:010e70000081
:010e71000080
:010e7200007f
:010e7300007e
:010e7400007d
:010e7500007c
:010e7600007b
:010e7700007a
:010e78000079
:010e79000078
:010e7a000077
:010e7b000076
:010e7c000075
:010e7d000074
:010e7e000073
:010e7f000072
:010e8000046d
:010e8100155b
:010e8200046b
:010e8300145a
:010e84000469
:010e85001458
:010e86000467
:010e87001456
:010e88001455
:010e89000464
:010e8a001453
:010e8b000462
:010e8c001451
:010e8d000460
:010e8e00045f
:010e8f00045e
:010e9000144d
:010e9100144c
:010e9200045b
:010e9300144a
:010e94001449
:010e95000458
:010e96001546
:010e97001446
:010e98001445
:010e99001444
:010e9a001443
:010e9b000452
:010e9c00193c
:010e9d001440
:010e9e00143f
:010e9f00153d
:010ea000143d
:010ea100143c
:010ea200044b
:010ea300143a
:010ea4001538
:010ea5002d1f
:010ea6002922
:010ea7001931
:010ea8002920
:010ea9001533
:010eaa00192e
:010eab00182e
:010eac001530
:010ead00291b
:010eae00192a
:010eaf00152d
:010eb0002918
:010eb1001927
:010eb2002916
:010eb3001925
:010eb4001924
:010eb5001923
:010eb6001922
:010eb7001921
:010eb8001a1f
:010eb9001a1e
:010eba002116
:010ebb001224
:010ebc00270e
:010ebd00171d
:010ebe00062d
:010ebf000032
:010ec000141d
:010ec100141c
:010ec200151a
:010ec3001519
:010ec4001419
:010ec5001418
:010ec6001516
:010ec7001515
:010ec8001415
:010ec9001513
:010eca001512
:010ecb001412
:010ecc001510
:010ecd00150f
:010ece00140f
:010ecf00150d
:010ed000140d
:010ed100150b
:010ed200140b
:010ed3001509
:010ed4001409
:010ed5001507
:010ed6001506
:010ed7001406
:010ed8001405
:010ed9001503
:010eda001502
:010edb001402
:010edc001500
:010edd0015ff
:010ede0015fe
:010edf0015fd
:010ee00015fc
:010ee10014fc
:010ee20015fa
:010ee30014fa
:010ee400000d
:010ee500000c
:010ee600000b
:010ee700000a
:010ee8000009
:010ee9000008
:010eea000007
:010eeb000006
:010eec000005
:010eed000004
:010eee000003
:010eef000002
:010ef0000001
:010ef1000000
:010ef20000ff
:010ef30000fe
:010ef40000fd
:010ef50000fc
:010ef60000fb
:010ef70000fa
:010ef80000f9
:010ef90000f8
:010efa0000f7
:010efb0000f6
:010efc0000f5
:010efd0000f4
:010efe0000f3
:010eff0000f2
:010f000014dc
:010f010000ef
:010f020015d9
:010f030000ed
:010f040014d8
:010f050005e6
:010f060014d6
:010f070004e5
:010f080014d4
:010f090004e3
:010f0a0000e6
:010f0b0014d1
:010f0c0004e0
:010f0d0014cf
:010f0e0014ce
:010f0f0014cd
:010f100004dc
:010f110014cb
:010f120014ca
:010f130004d9
:010f140014c8
:010f150014c7
:010f160004d6
:010f170018c1
:010f180015c3
:010f190004d3
:010f1a0015c1
:010f1b0014c1
:010f1c0014c0
:010f1d0015be
:010f1e0004ce
:010f1f0018b9
:010f200004cc
:010f210015ba
:010f220014ba
:010f230019b4
:010f240029a3
:010f250029a2
:010f260029a1
:010f270019b0
:010f2800299f
:010f290018af
:010f2a0015b1
:010f2b0019ac
:010f2c0018ac
:010f2d0015ae
:010f2e0019a9
:010f2f0019a8
:010f300015ab
:010f310019a6
:010f320019a5
:010f330019a4
:010f340019a3
:010f35001aa1
:010f36002991
:010f37001a9f
:010f38001a9e
:010f39001a9d
:010f3a001a9c
:010f3b00169f
:010f3c002292
:010f3d00278c
:010f3e00278b
:010f3f00169b
:010f4000149c
:010f4100159a
:010f4200149a
:010f43001499
:010f44001597
:010f45001596
:010f46001496
:010f47001594
:010f48001593
:010f49001493
:010f4a001591
:010f4b001590
:010f4c001490
:010f4d00158e
:010f4e00158d
:010f4f00158c
:010f5000158b
:010f5100158a
:010f52001589
:010f53001489
:010f54001587
:010f55001487
:010f56001585
:010f57001584
:010f58001484
:010f59001582
:010f5a001482
:010f5b001580
:010f5c00157f
:010f5d00147f
:010f5e00157d
:010f5f00147d
:010f6000157b
:010f6100157a
:010f62001579
:010f63001578
:010f6400008c
:010f6500008b
:010f6600008a
:010f67000089
:010f68000088
:010f69000087
:010f6a000086
:010f6b000085
:010f6c000084
:010f6d000083
:010f6e000082
:010f6f000081
:010f70000080
:010f7100007f
:010f7200007e
:010f7300007d
:010f7400007c
:010f7500007b
:010f7600007a
:010f77000079
:010f78000078
:010f79000077
:010f7a000076
:010f7b000075
:010f7c000074
:010f7d000073
:010f7e000072
:010f7f000071
:010f8000056b
:010f8100046b
:010f8200046a
:010f83001459
:010f84000468
:010f85001457
:010f8600006a
:010f87001455
:010f88000068
:010f89000463
:010f8a001452
:010f8b000461
:010f8c001054
:010f8d00045f
:010f8e00045e
:010f8f00144d
:010f9000045c
:010f9100144b
:010f9200045a
:010f93001449
:010f94000458
:010f95001447
:010f96001446
:010f97001445
:010f98000454
:010f99001443
:010f9a001442
:010f9b000451
:010f9c00153f
:010f9d00044f
:010f9e00143e
:010f9f00153c
:010fa000143c
:010fa100044b
:010fa2001539
:010fa3002924
:010fa4002923
:010fa5002922
:010fa6001931
:010fa7001831
:010fa8001434
:010fa900192e
:010faa001531
:010fab00182d
:010fac00152f
:010fad00152e
:010fae001929
:010faf00152c
:010fb0001927
:010fb1001926
:010fb2001925
:010fb3001924
:010fb4001923
:010fb5002912
:010fb6001a20
:010fb7001a1f
:010fb800290f
:010fb900191e
:010fba001a1c
:010fbb001a1b
:010fbc000034
:010fbd001221
:010fbe00270b
:010fbf00270a
:010fc000151b
:010fc100141b
:010fc200141a
:010fc3001518
:010fc4001517
:010fc5001417
:010fc6001515
:010fc7001514
:010fc8001414
:010fc9001512
:010fca001511
:010fcb001510
:010fcc00150f
:010fcd00150e
:010fce00150d
:010fcf00150c
:010fd000140c
:010fd100150a
:010fd200140a
:010fd3001508
:010fd4001507
:010fd5001506
:010fd6001505
:010fd7001405
:010fd8001503
:010fd9001403
:010fda001501
:010fdb001500
:010fdc001400
:010fdd0015fe
:010fde0015fd
:010fdf0015fc
:010fe00015fb
:010fe10015fa
:010fe20015f9
:010fe30015f8
:010fe400000c
:010fe500000b
:010fe600000a
:010fe7000009
:010fe8000008
:010fe9000007
:010fea000006
:010feb000005
:010fec000004
:010fed000003
:010fee000002
:010fef000001
:010ff0000000
:010ff10000ff
:010ff20000fe
:010ff30000fd
:010ff40000fc
:010ff50000fb
:010ff60000fa
:010ff70000f9
:010ff80000f8
:010ff90000f7
:010ffa0000f6
:010ffb0000f5
:010ffc0000f4
:010ffd0000f3
:010ffe0000f2
:010fff0000f1
:0110000014db
:0110010010de
:0110020004e9
:0110030005e7
:0110040014d7
:0110050000ea
:0110060015d4
:0110070004e4
:0110080004e3
:0110090014d2
:01100a0000e5
:01100b0004e0
:01100c0014cf
:01100d0004de
:01100e0014cd
:01100f0004dc
:0110100014cb
:0110110004da
:0110120014c9
:0110130014c8
:0110140014c7
:0110150004d6
:0110160014c5
:0110170005d3
:0110180014c3
:0110190015c1
:01101a0004d1
:01101b0015bf
:01101c0014bf
:01101d0014be
:01101e0015bc
:01101f0004cc
:0110200014bb
:0110210015b9
:0110220029a4
:0110230029a3
:0110240019b2
:0110250019b1
:0110260014b5
:0110270019af
:0110280019ae
:0110290015b1
:01102a0018ad
:01102b0015af
:01102c0018ab
:01102d0019a9
:01102e0014ad
:01102f0019a7
:0110300019a6
:0110310019a5
:0110320019a4
:0110330015a7
:0110340019a2
:011035001aa0
:0110360019a0
:01103700199f
:01103800199e
:011039001a9c
:01103a00199c
:01103b00199b
:01103c0005ae
:01103d0000b2
:01103e00169b
:01103f002789
:011040002788
:011041001599
:011042001499
:011043001597
:011044001497
:011045001595
:011046001594
:011047001494
:011048001592
:011049001591
:01104a001491
:01104b00158f
:01104c00158e
:01104d00158d
:01104e00158c
:01104f00158b
:01105000158a
:011051001589
:011052001588
:011053001587
:011054001487
:011055001585
:011056001584
:011057001583
:011058001582
:011059001581
:01105a001580
:01105b001480
:01105c00157e
:01105d00157d
:01105e00157c
:01105f00157b
:011060001877
:011061001579
:011062001974
:011063001577
:01106400008b
:01106500008a
:011066000089
:011067000088
:011068000087
:011069000086
:01106a000085
:01106b000084
:01106c000083
:01106d000082
:01106e000081
:01106f000080
:01107000007f
:01107100007e
:01107200007d
:01107300007c
:01107400007b
:01107500007a
:011076000079
:011077000078
:011078000077
:011079000076
:01107a000075
:01107b000074
:01107c000073
:01107d000072
:01107e000071
:01107f000070
:01108000046b
:011081000569
:011082001459
:01108300006c
:011084001556
:011085000466
:011086001455
:011087001454
:011088000166
:011089001452
:01108a000461
:01108b001450
:01108c000063
:01108d00144e
:01108e00144d
:01108f00144c
:01109000144b
:01109100144a
:011092000459
:011093001448
:011094001447
:011095001446
:011096001445
:011097001444
:011098000453
:011099001442
:01109a001441
:01109b000450
:01109c00143f
:01109d00044e
:01109e00143d
:01109f00044c
:0110a000143b
:0110a1002925
:0110a2002d20
:0110a3001834
:0110a4002922
:0110a5001832
:0110a6001930
:0110a7001434
:0110a8001532
:0110a900182e
:0110aa001530
:0110ab00192b
:0110ac00152e
:0110ad001929
:0110ae001928
:0110af00152b
:0110b0001926
:0110b1001529
:0110b2001924
:0110b3001527
:0110b4001922
:0110b5001525
:0110b6001524
:0110b700191f
:0110b8001522
:0110b900191d
:0110ba002a0b
:0110bb00151f
:0110bc00151e
:0110bd000032
:0110be001120
:0110bf00161a
:0110c0002708
:0110c1002608
:0110c2000429
:0110c3001517
:0110c4001516
:0110c5001416
:0110c6001514
:0110c7001513
:0110c8001512
:0110c9001511
:0110ca001510
:0110cb00150f
:0110cc00150e
:0110cd00150d
:0110ce00140d
:0110cf00150b
:0110d000150a
:0110d1001509
:0110d2001508
:0110d3001507
:0110d4001506
:0110d5001505
:0110d6001405
:0110d7001503
:0110d8001403
:0110d9001501
:0110da001500
:0110db0015ff
:0110dc0015fe
:0110dd0015fd
:0110de0014fd
:0110df0015fb
:0110e00015fa
:0110e10015f9
:0110e20014f9
:0110e30015f7
:0110e400000b
:0110e500000a
:0110e6000009
:0110e7000008
:0110e8000007
:0110e9000006
:0110ea000005
:0110eb000004
:0110ec000003
:0110ed000002
:0110ee000001
:0110ef000000
:0110f00000ff
:0110f10000fe
:0110f20000fd
:0110f30000fc
:0110f40000fb
:0110f50000fa
:0110f60000f9
:0110f70000f8
:0110f80000f7
:0110f90000f6
:0110fa0000f5
:0110fb0000f4
:0110fc0000f3
:0110fd0000f2
:0110fe0000f1
:0110ff0000f0
:0111000014da
:0111010010dd
:0111020004e8
:0111030014d7
:0111040004e6
:0111050014d5
:0111060001e7
:0111070004e3
:0111080014d2
:0111090004e1
:01110a0010d4
:01110b0004df
:01110c0015cd
:01110d0004dd
:01110e0000e0
:01110f0014cb
:0111100005d9
:0111110014c9
:0111120014c8
:0111130014c7
:0111140004d6
:0111150014c5
:0111160004d4
:0111170014c3
:0111180015c1
:0111190014c1
:01111a0005cf
:01111b0014bf
:01111c0015bd
:01111d0014bd
:01111e0005cb
:01111f0014bb
:0111200019b5
:0111210029a4
:0111220015b7
:0111230019b2
:0111240014b6
:0111250015b4
:01112600299f
:0111270019ae
:0111280014b2
:0111290015b0
:01112a0019ab
:01112b0015ae
:01112c0018aa
:01112d0015ac
:01112e0019a7
:01112f0019a6
:0111300015a9
:0111310019a4
:0111320015a7
:0111330019a2
:0111340015a5
:0111350019a0
:01113600199f
:0111370015a2
:01113800199d
:0111390015a0
:01113a002e86
:01113b002a89
:01113c0005ad
:01113d0000b1
:01113e00169a
:01113f002689
:011140001698
:011141002687
:011142001597
:0111430004a7
:011144001496
:011145001594
:011146001593
:011147001592
:011148001492
:011149001590
:01114a00158f
:01114b00158e
:01114c00158d
:01114d00158c
:01114e00158b
:01114f00158a
:011150001589
:011151001588
:011152001488
:011153001586
:011154001585
:011155001584
:011156001583
:011157001582
:011158001581
:011159001580
:01115a001480
:01115b00157e
:01115c00147e
:01115d001978
:01115e00157b
:01115f00157a
:011160001579
:011161001578
:011162001577
:011163001576
:01116400008a
:011165000089
:011166000088
:011167000087
:011168000086
:011169000085
:01116a000084
:01116b000083
:01116c000082
:01116d000081
:01116e000080
:01116f00007f
:01117000007e
:01117100007d
:01117200007c
:01117300007b
:01117400007a
:011175000079
:011176000078
:011177000077
:011178000076
:011179000075
:01117a000074
:01117b000073
:01117c000072
:01117d000071
:01117e000070
:01117f00006f
:011180000569
:011181000469
:011182001557
:011183000467
:011184001159
:011185000465
:011186001454
:011187001453
:011188000462
:011189001055
:01118a000460
:01118b00144f
:01118c000062
:01118d00144d
:01118e00154b
:01118f00045b
:01119000144a
:011191001449
:011192001547
:011193000457
:011194001446
:011195001445
:011196001444
:011197001542
:011198001442
:011199000451
:01119a001440
:01119b00054e
:01119c00143e
:01119d00044d
:01119e00143c
:01119f00143b
:0111a0002925
:0111a1002924
:0111a2001933
:0111a3002922
:0111a4001931
:0111a5001930
:0111a6001533
:0111a7001532
:0111a800192d
:0111a900192c
:0111aa00152f
:0111ab00192a
:0111ac00152d
:0111ad001928
:0111ae00152b
:0111af00152a
:0111b0001925
:0111b1001924
:0111b2001527
:0111b3001922
:0111b4001525
:0111b5001920
:0111b600290f
:0111b700290e
:0111b8002a0c
:0111b9003ef7
:0111ba003ff5
:0111bb002b08
:0111bc002909
:0111bd00151c
:0111be00260a
:0111bf001718
:0111c0001618
:0111c1001617
:0111c2001616
:0111c3001417
:0111c4001515
:0111c5000524
:0111c6001414
:0111c7000522
:0111c8001511
:0111c9001510
:0111ca00150f
:0111cb00150e
:0111cc00150d
:0111cd00150c
:0111ce00150b
:0111cf00150a
:0111d0001509
:0111d1001508
:0111d2001507
:0111d3001506
:0111d4001901
:0111d5001504
:0111d60019ff
:0111d7001403
:0111d8001501
:0111d9001401
:0111da0015ff
